{
  "_format": "hh-sol-artifact-1",
  "contractName": "DrugRegistry",
  "sourceName": "contracts/DrugRegistry.sol",
  "abi": [
    {
      "inputs": [],
      "stateMutability": "nonpayable",
      "type": "constructor"
    },
    {
      "inputs": [],
      "name": "AccessControlBadConfirmation",
      "type": "error"
    },
    {
      "inputs": [
        {
          "internalType": "address",
          "name": "account",
          "type": "address"
        },
        {
          "internalType": "bytes32",
          "name": "neededRole",
          "type": "bytes32"
        }
      ],
      "name": "AccessControlUnauthorizedAccount",
      "type": "error"
    },
    {
      "anonymous": false,
      "inputs": [
        {
          "indexed": false,
          "internalType": "string",
          "name": "batchId",
          "type": "string"
        },
        {
          "indexed": true,
          "internalType": "address",
          "name": "trigger",
          "type": "address"
        }
      ],
      "name": "DrugQuarantined",
      "type": "event"
    },
    {
      "anonymous": false,
      "inputs": [
        {
          "indexed": false,
          "internalType": "string",
          "name": "batchId",
          "type": "string"
        },
        {
          "indexed": true,
          "internalType": "address",
          "name": "manufacturer",
          "type": "address"
        }
      ],
      "name": "DrugRegistered",
      "type": "event"
    },
    {
      "anonymous": false,
      "inputs": [
        {
          "indexed": false,
          "internalType": "string",
          "name": "batchId",
          "type": "string"
        },
        {
          "indexed": true,
          "internalType": "address",
          "name": "from",
          "type": "address"
        },
        {
          "indexed": true,
          "internalType": "address",
          "name": "to",
          "type": "address"
        },
        {
          "indexed": false,
          "internalType": "enum DrugRegistry.DrugState",
          "name": "newState",
          "type": "uint8"
        }
      ],
      "name": "DrugTransferred",
      "type": "event"
    },
    {
      "anonymous": false,
      "inputs": [
        {
          "indexed": true,
          "internalType": "bytes32",
          "name": "role",
          "type": "bytes32"
        },
        {
          "indexed": true,
          "internalType": "bytes32",
          "name": "previousAdminRole",
          "type": "bytes32"
        },
        {
          "indexed": true,
          "internalType": "bytes32",
          "name": "newAdminRole",
          "type": "bytes32"
        }
      ],
      "name": "RoleAdminChanged",
      "type": "event"
    },
    {
      "anonymous": false,
      "inputs": [
        {
          "indexed": true,
          "internalType": "bytes32",
          "name": "role",
          "type": "bytes32"
        },
        {
          "indexed": true,
          "internalType": "address",
          "name": "account",
          "type": "address"
        },
        {
          "indexed": true,
          "internalType": "address",
          "name": "sender",
          "type": "address"
        }
      ],
      "name": "RoleGranted",
      "type": "event"
    },
    {
      "anonymous": false,
      "inputs": [
        {
          "indexed": false,
          "internalType": "bytes32",
          "name": "role",
          "type": "bytes32"
        },
        {
          "indexed": false,
          "internalType": "address",
          "name": "account",
          "type": "address"
        },
        {
          "indexed": false,
          "internalType": "address",
          "name": "sender",
          "type": "address"
        }
      ],
      "name": "RoleGrantedEvent",
      "type": "event"
    },
    {
      "anonymous": false,
      "inputs": [
        {
          "indexed": true,
          "internalType": "bytes32",
          "name": "role",
          "type": "bytes32"
        },
        {
          "indexed": true,
          "internalType": "address",
          "name": "account",
          "type": "address"
        },
        {
          "indexed": true,
          "internalType": "address",
          "name": "sender",
          "type": "address"
        }
      ],
      "name": "RoleRevoked",
      "type": "event"
    },
    {
      "inputs": [],
      "name": "DEFAULT_ADMIN_ROLE",
      "outputs": [
        {
          "internalType": "bytes32",
          "name": "",
          "type": "bytes32"
        }
      ],
      "stateMutability": "view",
      "type": "function"
    },
    {
      "inputs": [],
      "name": "DISTRIBUTOR_ROLE",
      "outputs": [
        {
          "internalType": "bytes32",
          "name": "",
          "type": "bytes32"
        }
      ],
      "stateMutability": "view",
      "type": "function"
    },
    {
      "inputs": [],
      "name": "MANUFACTURER_ROLE",
      "outputs": [
        {
          "internalType": "bytes32",
          "name": "",
          "type": "bytes32"
        }
      ],
      "stateMutability": "view",
      "type": "function"
    },
    {
      "inputs": [],
      "name": "PHARMACY_ROLE",
      "outputs": [
        {
          "internalType": "bytes32",
          "name": "",
          "type": "bytes32"
        }
      ],
      "stateMutability": "view",
      "type": "function"
    },
    {
      "inputs": [
        {
          "internalType": "string",
          "name": "",
          "type": "string"
        }
      ],
      "name": "drugExists",
      "outputs": [
        {
          "internalType": "bool",
          "name": "",
          "type": "bool"
        }
      ],
      "stateMutability": "view",
      "type": "function"
    },
    {
      "inputs": [
        {
          "internalType": "string",
          "name": "",
          "type": "string"
        }
      ],
      "name": "drugs",
      "outputs": [
        {
          "internalType": "string",
          "name": "batchId",
          "type": "string"
        },
        {
          "internalType": "string",
          "name": "drugName",
          "type": "string"
        },
        {
          "internalType": "address",
          "name": "manufacturer",
          "type": "address"
        },
        {
          "internalType": "uint256",
          "name": "manufacturingDate",
          "type": "uint256"
        },
        {
          "internalType": "uint256",
          "name": "expiryDate",
          "type": "uint256"
        },
        {
          "internalType": "uint256",
          "name": "quantity",
          "type": "uint256"
        },
        {
          "internalType": "address",
          "name": "currentOwner",
          "type": "address"
        },
        {
          "internalType": "enum DrugRegistry.DrugState",
          "name": "state",
          "type": "uint8"
        }
      ],
      "stateMutability": "view",
      "type": "function"
    },
    {
      "inputs": [
        {
          "internalType": "bytes32",
          "name": "role",
          "type": "bytes32"
        }
      ],
      "name": "getRoleAdmin",
      "outputs": [
        {
          "internalType": "bytes32",
          "name": "",
          "type": "bytes32"
        }
      ],
      "stateMutability": "view",
      "type": "function"
    },
    {
      "inputs": [
        {
          "internalType": "bytes32",
          "name": "role",
          "type": "bytes32"
        },
        {
          "internalType": "address",
          "name": "account",
          "type": "address"
        }
      ],
      "name": "grantRole",
      "outputs": [],
      "stateMutability": "nonpayable",
      "type": "function"
    },
    {
      "inputs": [
        {
          "internalType": "bytes32",
          "name": "role",
          "type": "bytes32"
        },
        {
          "internalType": "address",
          "name": "account",
          "type": "address"
        }
      ],
      "name": "hasRole",
      "outputs": [
        {
          "internalType": "bool",
          "name": "",
          "type": "bool"
        }
      ],
      "stateMutability": "view",
      "type": "function"
    },
    {
      "inputs": [
        {
          "internalType": "string",
          "name": "",
          "type": "string"
        },
        {
          "internalType": "uint256",
          "name": "",
          "type": "uint256"
        }
      ],
      "name": "ownershipHistory",
      "outputs": [
        {
          "internalType": "address",
          "name": "",
          "type": "address"
        }
      ],
      "stateMutability": "view",
      "type": "function"
    },
    {
      "inputs": [
        {
          "internalType": "string",
          "name": "_batchId",
          "type": "string"
        }
      ],
      "name": "quarantineDrug",
      "outputs": [],
      "stateMutability": "nonpayable",
      "type": "function"
    },
    {
      "inputs": [
        {
          "internalType": "string",
          "name": "_batchId",
          "type": "string"
        },
        {
          "internalType": "string",
          "name": "_drugName",
          "type": "string"
        },
        {
          "internalType": "uint256",
          "name": "_manufacturingDate",
          "type": "uint256"
        },
        {
          "internalType": "uint256",
          "name": "_expiryDate",
          "type": "uint256"
        },
        {
          "internalType": "uint256",
          "name": "_quantity",
          "type": "uint256"
        }
      ],
      "name": "registerDrug",
      "outputs": [],
      "stateMutability": "nonpayable",
      "type": "function"
    },
    {
      "inputs": [
        {
          "internalType": "bytes32",
          "name": "role",
          "type": "bytes32"
        },
        {
          "internalType": "address",
          "name": "callerConfirmation",
          "type": "address"
        }
      ],
      "name": "renounceRole",
      "outputs": [],
      "stateMutability": "nonpayable",
      "type": "function"
    },
    {
      "inputs": [
        {
          "internalType": "bytes32",
          "name": "role",
          "type": "bytes32"
        },
        {
          "internalType": "address",
          "name": "account",
          "type": "address"
        }
      ],
      "name": "revokeRole",
      "outputs": [],
      "stateMutability": "nonpayable",
      "type": "function"
    },
    {
      "inputs": [
        {
          "internalType": "string",
          "name": "_batchId",
          "type": "string"
        }
      ],
      "name": "sellDrug",
      "outputs": [],
      "stateMutability": "nonpayable",
      "type": "function"
    },
    {
      "inputs": [
        {
          "internalType": "bytes4",
          "name": "interfaceId",
          "type": "bytes4"
        }
      ],
      "name": "supportsInterface",
      "outputs": [
        {
          "internalType": "bool",
          "name": "",
          "type": "bool"
        }
      ],
      "stateMutability": "view",
      "type": "function"
    },
    {
      "inputs": [
        {
          "internalType": "string",
          "name": "_batchId",
          "type": "string"
        },
        {
          "internalType": "address",
          "name": "_to",
          "type": "address"
        },
        {
          "internalType": "enum DrugRegistry.DrugState",
          "name": "_newState",
          "type": "uint8"
        }
      ],
      "name": "transferDrug",
      "outputs": [],
      "stateMutability": "nonpayable",
      "type": "function"
    },
    {
      "inputs": [
        {
          "internalType": "string",
          "name": "_batchId",
          "type": "string"
        }
      ],
      "name": "verifyDrug",
      "outputs": [
        {
          "internalType": "bool",
          "name": "isAuthentic",
          "type": "bool"
        },
        {
          "components": [
            {
              "internalType": "string",
              "name": "batchId",
              "type": "string"
            },
            {
              "internalType": "string",
              "name": "drugName",
              "type": "string"
            },
            {
              "internalType": "address",
              "name": "manufacturer",
              "type": "address"
            },
            {
              "internalType": "uint256",
              "name": "manufacturingDate",
              "type": "uint256"
            },
            {
              "internalType": "uint256",
              "name": "expiryDate",
              "type": "uint256"
            },
            {
              "internalType": "uint256",
              "name": "quantity",
              "type": "uint256"
            },
            {
              "internalType": "address",
              "name": "currentOwner",
              "type": "address"
            },
            {
              "internalType": "enum DrugRegistry.DrugState",
              "name": "state",
              "type": "uint8"
            }
          ],
          "internalType": "struct DrugRegistry.Drug",
          "name": "drugDetails",
          "type": "tuple"
        },
        {
          "internalType": "address[]",
          "name": "history",
          "type": "address[]"
        }
      ],
      "stateMutability": "view",
      "type": "function"
    }
  ],
  "bytecode": "0x60806040523480156200001157600080fd5b50620000276000801b336200002e60201b60201c565b50620001a3565b60006200004283836200013160201b60201c565b6200012657600160008085815260200190815260200160002060000160008473ffffffffffffffffffffffffffffffffffffffff1673ffffffffffffffffffffffffffffffffffffffff16815260200190815260200160002060006101000a81548160ff021916908315150217905550620000c26200019b60201b60201c565b73ffffffffffffffffffffffffffffffffffffffff168273ffffffffffffffffffffffffffffffffffffffff16847f2f8788117e7eff1d82e926ec794901d17c78024a50270940304540a733656f0d60405160405180910390a4600190506200012b565b600090505b92915050565b600080600084815260200190815260200160002060000160008373ffffffffffffffffffffffffffffffffffffffff1673ffffffffffffffffffffffffffffffffffffffff16815260200190815260200160002060009054906101000a900460ff16905092915050565b600033905090565b612df580620001b36000396000f3fe608060405234801561001057600080fd5b50600436106101165760003560e01c806387ff0ef8116100a2578063b009493d11610071578063b009493d14610305578063d547741f1461033c578063f0bd87cc14610358578063f0c58ea714610376578063f623ecd91461039457610116565b806387ff0ef81461027d57806391d1485414610299578063965288b0146102c9578063a217fddf146102e757610116565b80632f2ff15d116100e95780632f2ff15d146101c757806336568abe146101e35780633b7b0a74146101ff578063713d65f31461023157806376d24fea1461024d57610116565b806301ffc9a71461011b5780631d3b18631461014b578063248a9ca31461017b5780632a84a905146101ab575b600080fd5b61013560048036038101906101309190611def565b6103b0565b6040516101429190611e37565b60405180910390f35b61016560048036038101906101609190611f98565b61042a565b6040516101729190611e37565b60405180910390f35b61019560048036038101906101909190612017565b610460565b6040516101a29190612053565b60405180910390f35b6101c560048036038101906101c09190611f98565b61047f565b005b6101e160048036038101906101dc91906120cc565b610631565b005b6101fd60048036038101906101f891906120cc565b61067a565b005b61021960048036038101906102149190611f98565b6106f5565b60405161022893929190612390565b60405180910390f35b61024b60048036038101906102469190612401565b610d44565b005b610267600480360381019061026291906124b4565b6110ca565b604051610274919061251f565b60405180910390f35b61029760048036038101906102929190611f98565b61112e565b005b6102b360048036038101906102ae91906120cc565b611401565b6040516102c09190611e37565b60405180910390f35b6102d161146b565b6040516102de9190612053565b60405180910390f35b6102ef61148f565b6040516102fc9190612053565b60405180910390f35b61031f600480360381019061031a9190611f98565b611496565b6040516103339897969594939291906125a2565b60405180910390f35b610356600480360381019061035191906120cc565b611651565b005b610360611673565b60405161036d9190612053565b60405180910390f35b61037e611697565b60405161038b9190612053565b60405180910390f35b6103ae60048036038101906103a99190612653565b6116bb565b005b60007f7965db0b000000000000000000000000000000000000000000000000000000007bffffffffffffffffffffffffffffffffffffffffffffffffffffffff1916827bffffffffffffffffffffffffffffffffffffffffffffffffffffffff19161480610423575061042282611a24565b5b9050919050565b6002818051602081018201805184825260208301602085012081835280955050505050506000915054906101000a900460ff1681565b6000806000838152602001908152602001600020600101549050919050565b60028160405161048f91906126fe565b908152602001604051809103902060009054906101000a900460ff166104ea576040517f08c379a00000000000000000000000000000000000000000000000000000000081526004016104e190612761565b60405180910390fd5b60006001826040516104fc91906126fe565b908152602001604051809103902090506105196000801b33611401565b8061057357503373ffffffffffffffffffffffffffffffffffffffff168160020160009054906101000a900473ffffffffffffffffffffffffffffffffffffffff1673ffffffffffffffffffffffffffffffffffffffff16145b6105b2576040517f08c379a00000000000000000000000000000000000000000000000000000000081526004016105a9906127cd565b60405180910390fd5b60058160060160146101000a81548160ff021916908360058111156105da576105d96121b3565b5b02179055503373ffffffffffffffffffffffffffffffffffffffff167f2f4f05da5ab28df5ea9aa7174b605a461c9f76ea6baf4f2d7a813a93b79c712e8360405161062591906127ed565b60405180910390a25050565b61063b8282611a8e565b7fad126e479021c7e45fb125dd12ffc071cbbb27ec781d7289b8af456ec43b284e82823360405161066e9392919061280f565b60405180910390a15050565b610682611ab0565b73ffffffffffffffffffffffffffffffffffffffff168173ffffffffffffffffffffffffffffffffffffffff16146106e6576040517f6697b23200000000000000000000000000000000000000000000000000000000815260040160405180910390fd5b6106f08282611ab8565b505050565b60006106ff611d00565b606060028460405161071191906126fe565b908152602001604051809103902060009054906101000a900460ff166109de57600060018560405161074391906126fe565b9081526020016040518091039020600067ffffffffffffffff81111561076c5761076b611e6d565b5b60405190808252806020026020018201604052801561079a5781602001602082028036833780820191505090505b5081604051806101000160405290816000820180546107b890612875565b80601f01602080910402602001604051908101604052809291908181526020018280546107e490612875565b80156108315780601f1061080657610100808354040283529160200191610831565b820191906000526020600020905b81548152906001019060200180831161081457829003601f168201915b5050505050815260200160018201805461084a90612875565b80601f016020809104026020016040519081016040528092919081815260200182805461087690612875565b80156108c35780601f10610898576101008083540402835291602001916108c3565b820191906000526020600020905b8154815290600101906020018083116108a657829003601f168201915b505050505081526020016002820160009054906101000a900473ffffffffffffffffffffffffffffffffffffffff1673ffffffffffffffffffffffffffffffffffffffff1673ffffffffffffffffffffffffffffffffffffffff1681526020016003820154815260200160048201548152602001600582015481526020016006820160009054906101000a900473ffffffffffffffffffffffffffffffffffffffff1673ffffffffffffffffffffffffffffffffffffffff1673ffffffffffffffffffffffffffffffffffffffff1681526020016006820160149054906101000a900460ff1660058111156109bb576109ba6121b3565b5b60058111156109cd576109cc6121b3565b5b815250509150925092509250610d3d565b60006005808111156109f3576109f26121b3565b5b600186604051610a0391906126fe565b908152602001604051809103902060060160149054906101000a900460ff166005811115610a3457610a336121b3565b5b1415905080600186604051610a4991906126fe565b9081526020016040518091039020600387604051610a6791906126fe565b90815260200160405180910390208160405180610100016040529081600082018054610a9290612875565b80601f0160208091040260200160405190810160405280929190818152602001828054610abe90612875565b8015610b0b5780601f10610ae057610100808354040283529160200191610b0b565b820191906000526020600020905b815481529060010190602001808311610aee57829003601f168201915b50505050508152602001600182018054610b2490612875565b80601f0160208091040260200160405190810160405280929190818152602001828054610b5090612875565b8015610b9d5780601f10610b7257610100808354040283529160200191610b9d565b820191906000526020600020905b815481529060010190602001808311610b8057829003601f168201915b505050505081526020016002820160009054906101000a900473ffffffffffffffffffffffffffffffffffffffff1673ffffffffffffffffffffffffffffffffffffffff1673ffffffffffffffffffffffffffffffffffffffff1681526020016003820154815260200160048201548152602001600582015481526020016006820160009054906101000a900473ffffffffffffffffffffffffffffffffffffffff1673ffffffffffffffffffffffffffffffffffffffff1673ffffffffffffffffffffffffffffffffffffffff1681526020016006820160149054906101000a900460ff166005811115610c9557610c946121b3565b5b6005811115610ca757610ca66121b3565b5b81525050915080805480602002602001604051908101604052809291908181526020018280548015610d2e57602002820191906000526020600020905b8160009054906101000a900473ffffffffffffffffffffffffffffffffffffffff1673ffffffffffffffffffffffffffffffffffffffff1681526020019060010190808311610ce4575b50505050509050935093509350505b9193909250565b7feefb95e842a3287179d933b4460be539a1d5af11aa8b325bb45c5c8dc92de4ed610d6e81611baa565b600286604051610d7e91906126fe565b908152602001604051809103902060009054906101000a900460ff1615610dda576040517f08c379a0000000000000000000000000000000000000000000000000000000008152600401610dd1906128f2565b60405180910390fd5b428311610e1c576040517f08c379a0000000000000000000000000000000000000000000000000000000008152600401610e1390612984565b60405180910390fd5b6040518061010001604052808781526020018681526020013373ffffffffffffffffffffffffffffffffffffffff1681526020018581526020018481526020018381526020013373ffffffffffffffffffffffffffffffffffffffff16815260200160006005811115610e9257610e916121b3565b5b815250600187604051610ea591906126fe565b90815260200160405180910390206000820151816000019081610ec89190612b50565b506020820151816001019081610ede9190612b50565b5060408201518160020160006101000a81548173ffffffffffffffffffffffffffffffffffffffff021916908373ffffffffffffffffffffffffffffffffffffffff160217905550606082015181600301556080820151816004015560a0820151816005015560c08201518160060160006101000a81548173ffffffffffffffffffffffffffffffffffffffff021916908373ffffffffffffffffffffffffffffffffffffffff16021790555060e08201518160060160146101000a81548160ff02191690836005811115610fb657610fb56121b3565b5b02179055509050506001600287604051610fd091906126fe565b908152602001604051809103902060006101000a81548160ff02191690831515021790555060038660405161100591906126fe565b9081526020016040518091039020339080600181540180825580915050600190039060005260206000200160009091909190916101000a81548173ffffffffffffffffffffffffffffffffffffffff021916908373ffffffffffffffffffffffffffffffffffffffff1602179055503373ffffffffffffffffffffffffffffffffffffffff167f0f7e823034ca64f5be32fe1f47fbe1ca185ef40aaf60e81fe07b76737443aa51876040516110ba91906127ed565b60405180910390a2505050505050565b60038280516020810182018051848252602083016020850120818352809550505050505081815481106110fc57600080fd5b906000526020600020016000915091509054906101000a900473ffffffffffffffffffffffffffffffffffffffff1681565b7f2f3a5455f35aeca177ac653592f277fbe2fbafef01081a2030451bb2fb41c91d61115881611baa565b60028260405161116891906126fe565b908152602001604051809103902060009054906101000a900460ff166111c3576040517f08c379a00000000000000000000000000000000000000000000000000000000081526004016111ba90612761565b60405180910390fd5b60006001836040516111d591906126fe565b908152602001604051809103902090503373ffffffffffffffffffffffffffffffffffffffff168160060160009054906101000a900473ffffffffffffffffffffffffffffffffffffffff1673ffffffffffffffffffffffffffffffffffffffff1614611277576040517f08c379a000000000000000000000000000000000000000000000000000000000815260040161126e90612c6e565b60405180910390fd5b60058081111561128a576112896121b3565b5b8160060160149054906101000a900460ff1660058111156112ae576112ad6121b3565b5b036112ee576040517f08c379a00000000000000000000000000000000000000000000000000000000081526004016112e590612cda565b60405180910390fd5b60046005811115611302576113016121b3565b5b8160060160149054906101000a900460ff166005811115611326576113256121b3565b5b03611366576040517f08c379a000000000000000000000000000000000000000000000000000000000815260040161135d90612d46565b60405180910390fd5b60048160060160146101000a81548160ff0219169083600581111561138e5761138d6121b3565b5b0217905550600073ffffffffffffffffffffffffffffffffffffffff163373ffffffffffffffffffffffffffffffffffffffff167f3f9040d6cd1f5118f70ee1ba8ec6f1949746f419d3b78c38f47c59ed097dfc358560046040516113f4929190612d66565b60405180910390a3505050565b600080600084815260200190815260200160002060000160008373ffffffffffffffffffffffffffffffffffffffff1673ffffffffffffffffffffffffffffffffffffffff16815260200190815260200160002060009054906101000a900460ff16905092915050565b7feefb95e842a3287179d933b4460be539a1d5af11aa8b325bb45c5c8dc92de4ed81565b6000801b81565b6001818051602081018201805184825260208301602085012081835280955050505050506000915090508060000180546114cf90612875565b80601f01602080910402602001604051908101604052809291908181526020018280546114fb90612875565b80156115485780601f1061151d57610100808354040283529160200191611548565b820191906000526020600020905b81548152906001019060200180831161152b57829003601f168201915b50505050509080600101805461155d90612875565b80601f016020809104026020016040519081016040528092919081815260200182805461158990612875565b80156115d65780601f106115ab576101008083540402835291602001916115d6565b820191906000526020600020905b8154815290600101906020018083116115b957829003601f168201915b5050505050908060020160009054906101000a900473ffffffffffffffffffffffffffffffffffffffff16908060030154908060040154908060050154908060060160009054906101000a900473ffffffffffffffffffffffffffffffffffffffff16908060060160149054906101000a900460ff16905088565b61165a82610460565b61166381611baa565b61166d8383611ab8565b50505050565b7ffbd454f36a7e1a388bd6fc3ab10d434aa4578f811acbbcf33afb1c697486313c81565b7f2f3a5455f35aeca177ac653592f277fbe2fbafef01081a2030451bb2fb41c91d81565b6002836040516116cb91906126fe565b908152602001604051809103902060009054906101000a900460ff16611726576040517f08c379a000000000000000000000000000000000000000000000000000000000815260040161171d90612761565b60405180910390fd5b600060018460405161173891906126fe565b908152602001604051809103902090503373ffffffffffffffffffffffffffffffffffffffff168160060160009054906101000a900473ffffffffffffffffffffffffffffffffffffffff1673ffffffffffffffffffffffffffffffffffffffff16146117da576040517f08c379a00000000000000000000000000000000000000000000000000000000081526004016117d190612c6e565b60405180910390fd5b6005808111156117ed576117ec6121b3565b5b8160060160149054906101000a900460ff166005811115611811576118106121b3565b5b03611851576040517f08c379a000000000000000000000000000000000000000000000000000000000815260040161184890612cda565b60405180910390fd5b60046005811115611865576118646121b3565b5b8160060160149054906101000a900460ff166005811115611889576118886121b3565b5b036118c9576040517f08c379a00000000000000000000000000000000000000000000000000000000081526004016118c090612d46565b60405180910390fd5b828160060160006101000a81548173ffffffffffffffffffffffffffffffffffffffff021916908373ffffffffffffffffffffffffffffffffffffffff160217905550818160060160146101000a81548160ff02191690836005811115611933576119326121b3565b5b021790555060038460405161194891906126fe565b9081526020016040518091039020839080600181540180825580915050600190039060005260206000200160009091909190916101000a81548173ffffffffffffffffffffffffffffffffffffffff021916908373ffffffffffffffffffffffffffffffffffffffff1602179055508273ffffffffffffffffffffffffffffffffffffffff163373ffffffffffffffffffffffffffffffffffffffff167f3f9040d6cd1f5118f70ee1ba8ec6f1949746f419d3b78c38f47c59ed097dfc358685604051611a16929190612d66565b60405180910390a350505050565b60007f01ffc9a7000000000000000000000000000000000000000000000000000000007bffffffffffffffffffffffffffffffffffffffffffffffffffffffff1916827bffffffffffffffffffffffffffffffffffffffffffffffffffffffff1916149050919050565b611a9782610460565b611aa081611baa565b611aaa8383611bbe565b50505050565b600033905090565b6000611ac48383611401565b15611b9f57600080600085815260200190815260200160002060000160008473ffffffffffffffffffffffffffffffffffffffff1673ffffffffffffffffffffffffffffffffffffffff16815260200190815260200160002060006101000a81548160ff021916908315150217905550611b3c611ab0565b73ffffffffffffffffffffffffffffffffffffffff168273ffffffffffffffffffffffffffffffffffffffff16847ff6391f5c32d9c69d2a47ea670b442974b53935d1edc7fd64eb21e047a839171b60405160405180910390a460019050611ba4565b600090505b92915050565b611bbb81611bb6611ab0565b611caf565b50565b6000611bca8383611401565b611ca457600160008085815260200190815260200160002060000160008473ffffffffffffffffffffffffffffffffffffffff1673ffffffffffffffffffffffffffffffffffffffff16815260200190815260200160002060006101000a81548160ff021916908315150217905550611c41611ab0565b73ffffffffffffffffffffffffffffffffffffffff168273ffffffffffffffffffffffffffffffffffffffff16847f2f8788117e7eff1d82e926ec794901d17c78024a50270940304540a733656f0d60405160405180910390a460019050611ca9565b600090505b92915050565b611cb98282611401565b611cfc5780826040517fe2517d3f000000000000000000000000000000000000000000000000000000008152600401611cf3929190612d96565b60405180910390fd5b5050565b6040518061010001604052806060815260200160608152602001600073ffffffffffffffffffffffffffffffffffffffff168152602001600081526020016000815260200160008152602001600073ffffffffffffffffffffffffffffffffffffffff16815260200160006005811115611d7d57611d7c6121b3565b5b81525090565b6000604051905090565b600080fd5b600080fd5b60007fffffffff0000000000000000000000000000000000000000000000000000000082169050919050565b611dcc81611d97565b8114611dd757600080fd5b50565b600081359050611de981611dc3565b92915050565b600060208284031215611e0557611e04611d8d565b5b6000611e1384828501611dda565b91505092915050565b60008115159050919050565b611e3181611e1c565b82525050565b6000602082019050611e4c6000830184611e28565b92915050565b600080fd5b600080fd5b6000601f19601f8301169050919050565b7f4e487b7100000000000000000000000000000000000000000000000000000000600052604160045260246000fd5b611ea582611e5c565b810181811067ffffffffffffffff82111715611ec457611ec3611e6d565b5b80604052505050565b6000611ed7611d83565b9050611ee38282611e9c565b919050565b600067ffffffffffffffff821115611f0357611f02611e6d565b5b611f0c82611e5c565b9050602081019050919050565b82818337600083830152505050565b6000611f3b611f3684611ee8565b611ecd565b905082815260208101848484011115611f5757611f56611e57565b5b611f62848285611f19565b509392505050565b600082601f830112611f7f57611f7e611e52565b5b8135611f8f848260208601611f28565b91505092915050565b600060208284031215611fae57611fad611d8d565b5b600082013567ffffffffffffffff811115611fcc57611fcb611d92565b5b611fd884828501611f6a565b91505092915050565b6000819050919050565b611ff481611fe1565b8114611fff57600080fd5b50565b60008135905061201181611feb565b92915050565b60006020828403121561202d5761202c611d8d565b5b600061203b84828501612002565b91505092915050565b61204d81611fe1565b82525050565b60006020820190506120686000830184612044565b92915050565b600073ffffffffffffffffffffffffffffffffffffffff82169050919050565b60006120998261206e565b9050919050565b6120a98161208e565b81146120b457600080fd5b50565b6000813590506120c6816120a0565b92915050565b600080604083850312156120e3576120e2611d8d565b5b60006120f185828601612002565b9250506020612102858286016120b7565b9150509250929050565b600081519050919050565b600082825260208201905092915050565b60005b8381101561214657808201518184015260208101905061212b565b60008484015250505050565b600061215d8261210c565b6121678185612117565b9350612177818560208601612128565b61218081611e5c565b840191505092915050565b6121948161208e565b82525050565b6000819050919050565b6121ad8161219a565b82525050565b7f4e487b7100000000000000000000000000000000000000000000000000000000600052602160045260246000fd5b600681106121f3576121f26121b3565b5b50565b6000819050612204826121e2565b919050565b6000612214826121f6565b9050919050565b61222481612209565b82525050565b60006101008301600083015184820360008601526122488282612152565b915050602083015184820360208601526122628282612152565b9150506040830151612277604086018261218b565b50606083015161228a60608601826121a4565b50608083015161229d60808601826121a4565b5060a08301516122b060a08601826121a4565b5060c08301516122c360c086018261218b565b5060e08301516122d660e086018261221b565b508091505092915050565b600081519050919050565b600082825260208201905092915050565b6000819050602082019050919050565b6000612319838361218b565b60208301905092915050565b6000602082019050919050565b600061233d826122e1565b61234781856122ec565b9350612352836122fd565b8060005b8381101561238357815161236a888261230d565b975061237583612325565b925050600181019050612356565b5085935050505092915050565b60006060820190506123a56000830186611e28565b81810360208301526123b7818561222a565b905081810360408301526123cb8184612332565b9050949350505050565b6123de8161219a565b81146123e957600080fd5b50565b6000813590506123fb816123d5565b92915050565b600080600080600060a0868803121561241d5761241c611d8d565b5b600086013567ffffffffffffffff81111561243b5761243a611d92565b5b61244788828901611f6a565b955050602086013567ffffffffffffffff81111561246857612467611d92565b5b61247488828901611f6a565b9450506040612485888289016123ec565b9350506060612496888289016123ec565b92505060806124a7888289016123ec565b9150509295509295909350565b600080604083850312156124cb576124ca611d8d565b5b600083013567ffffffffffffffff8111156124e9576124e8611d92565b5b6124f585828601611f6a565b9250506020612506858286016123ec565b9150509250929050565b6125198161208e565b82525050565b60006020820190506125346000830184612510565b92915050565b600082825260208201905092915050565b60006125568261210c565b612560818561253a565b9350612570818560208601612128565b61257981611e5c565b840191505092915050565b61258d8161219a565b82525050565b61259c81612209565b82525050565b60006101008201905081810360008301526125bd818b61254b565b905081810360208301526125d1818a61254b565b90506125e06040830189612510565b6125ed6060830188612584565b6125fa6080830187612584565b61260760a0830186612584565b61261460c0830185612510565b61262160e0830184612593565b9998505050505050505050565b6006811061263b57600080fd5b50565b60008135905061264d8161262e565b92915050565b60008060006060848603121561266c5761266b611d8d565b5b600084013567ffffffffffffffff81111561268a57612689611d92565b5b61269686828701611f6a565b93505060206126a7868287016120b7565b92505060406126b88682870161263e565b9150509250925092565b600081905092915050565b60006126d88261210c565b6126e281856126c2565b93506126f2818560208601612128565b80840191505092915050565b600061270a82846126cd565b915081905092915050565b7f4472756720646f6573206e6f7420657869737400000000000000000000000000600082015250565b600061274b60138361253a565b915061275682612715565b602082019050919050565b6000602082019050818103600083015261277a8161273e565b9050919050565b7f4e6f7420617574686f72697a656420746f2071756172616e74696e6500000000600082015250565b60006127b7601c8361253a565b91506127c282612781565b602082019050919050565b600060208201905081810360008301526127e6816127aa565b9050919050565b60006020820190508181036000830152612807818461254b565b905092915050565b60006060820190506128246000830186612044565b6128316020830185612510565b61283e6040830184612510565b949350505050565b7f4e487b7100000000000000000000000000000000000000000000000000000000600052602260045260246000fd5b6000600282049050600182168061288d57607f821691505b6020821081036128a05761289f612846565b5b50919050565b7f4472756720626174636820616c72656164792065786973747300000000000000600082015250565b60006128dc60198361253a565b91506128e7826128a6565b602082019050919050565b6000602082019050818103600083015261290b816128cf565b9050919050565b7f4578706972792064617465206d75737420626520696e2074686520667574757260008201527f6500000000000000000000000000000000000000000000000000000000000000602082015250565b600061296e60218361253a565b915061297982612912565b604082019050919050565b6000602082019050818103600083015261299d81612961565b9050919050565b60008190508160005260206000209050919050565b60006020601f8301049050919050565b600082821b905092915050565b600060088302612a067fffffffffffffffffffffffffffffffffffffffffffffffffffffffffffffffff826129c9565b612a1086836129c9565b95508019841693508086168417925050509392505050565b6000819050919050565b6000612a4d612a48612a438461219a565b612a28565b61219a565b9050919050565b6000819050919050565b612a6783612a32565b612a7b612a7382612a54565b8484546129d6565b825550505050565b600090565b612a90612a83565b612a9b818484612a5e565b505050565b5b81811015612abf57612ab4600082612a88565b600181019050612aa1565b5050565b601f821115612b0457612ad5816129a4565b612ade846129b9565b81016020851015612aed578190505b612b01612af9856129b9565b830182612aa0565b50505b505050565b600082821c905092915050565b6000612b2760001984600802612b09565b1980831691505092915050565b6000612b408383612b16565b9150826002028217905092915050565b612b598261210c565b67ffffffffffffffff811115612b7257612b71611e6d565b5b612b7c8254612875565b612b87828285612ac3565b600060209050601f831160018114612bba5760008415612ba8578287015190505b612bb28582612b34565b865550612c1a565b601f198416612bc8866129a4565b60005b82811015612bf057848901518255600182019150602085019450602081019050612bcb565b86831015612c0d5784890151612c09601f891682612b16565b8355505b6001600288020188555050505b505050505050565b7f596f7520646f206e6f74206f776e207468697320647275670000000000000000600082015250565b6000612c5860188361253a565b9150612c6382612c22565b602082019050919050565b60006020820190508181036000830152612c8781612c4b565b9050919050565b7f447275672071756172616e74696e656400000000000000000000000000000000600082015250565b6000612cc460108361253a565b9150612ccf82612c8e565b602082019050919050565b60006020820190508181036000830152612cf381612cb7565b9050919050565b7f4472756720616c726561647920736f6c64000000000000000000000000000000600082015250565b6000612d3060118361253a565b9150612d3b82612cfa565b602082019050919050565b60006020820190508181036000830152612d5f81612d23565b9050919050565b60006040820190508181036000830152612d80818561254b565b9050612d8f6020830184612593565b9392505050565b6000604082019050612dab6000830185612510565b612db86020830184612044565b939250505056fea2646970667358221220fd6e85bedba3196a51e9629ab02fbd79dad1c0a30766772e86a4e4e9af63d5bd64736f6c63430008140033",
  "linkReferences": {},
  "deployedLinkReferences": {}
}